:1000000061C0000087C0000085C0000083C0000000
:1000100081C000007FC000007DC000007BC00000E8
:1000200079C000000C94600B75C0000073C0000024
:1000300071C000006FC000006DC000006BC0000008
:100040000C94520E67C000000C9431110C94631193
:1000500061C000005FC000005DC000005BC0000028
:1000600059C0000057C00000000000080002010055
:100070000003040700000000000000000102040863
:100080001020408001020408102001020408102002
:10009000040404040404040402020202020203032E
:1000A00003030303000000002300260029000000D2
:1000B0000000250028002B0000000000240027007D
:1000C0002A00881111241FBECFEFD8E0DEBFCDBFBC
:1000D00011E0A0E0B1E0E8E1F4E202C005900D9289
:1000E000AA36B107D9F723E0AAE6B1E001C01D9214
:1000F000AC30B207E1F710E0C2E6D0E004C02197CF
:10010000FE010E940412C136D107C9F70E94020CF9
:100110000C940A1275CFCF93DF93882349F0EB013B
:1001200081500E94D70E99838883DF91CF910895E3
:10013000FB0111821082F9CF0F931F938B019C0159
:1001400083E036952795179507958A95D1F70D5831
:100150001E4F462F477021E030E0F90102C0EE0F3C
:10016000FF1F4A95E2F7AF01F80120812423CB015C
:100170000196211102C090E080E01F910F91089537
:100180000F931F938B019C0183E03695279517955C
:1001900007958A95D1F7677081E090E001C0880FDC
:1001A0006A95EAF7F801ED58FE4F2081452B31F4AE
:1001B0008095822380831F910F910895822BFACF1F
:1001C000CF92DF92EF92FF92CF93DF936B017C018E
:1001D00060E08EE0C816D104E104F10490F48EE0F2
:1001E0008C0D0E94760FE6012196AE01C701B60183
:1001F000C7DFCE01DF91CF91FF90EF90DF90CF90DE
:1002000008958C2DEECF882341F08150682F70E047
:1002100090E080E050E040E0B3CF0895611102C06B
:100220000C94760F6130E1F362E0FACF662319F0A7
:1002300061E00C94B20F60E0FCCF0E94DF0F21E080
:10024000019709F020E0822F0895CF92DF92EF927C
:10025000FF92CF93882351F16A017B01CFEFC80F42
:1002600020E030E0A901CB01B6010E94B10C1816C4
:100270008CF0C701B60190580E94BA0C9B01AC01EA
:100280006C2F70E090E080E0CF91FF90EF90DF90D6
:10029000CF90B2C0C701B6010E94B50C8C2FCF9190
:1002A000FF90EF90DF90CF900C94F20ECF91FF90E3
:1002B000EF90DF90CF9008950F931F938B019C01D7
:1002C00083E036952795179507958A95D1F70659B6
:1002D0001E4F462F477021E030E0F90102C0EE0FBB
:1002E000FF1F4A95E2F7AF01F80120812423CB01DB
:1002F0000196211102C090E080E01F910F910895B6
:100300000F931F938B019C0183E0369527951795DA
:1003100007958A95D1F7677081E090E001C0880F5A
:100320006A95EAF7F801E659FE4F2081452B31F432
:100330008095822380831F910F910895822BFACF9D
:100340002F923F924F925F926F927F928F929F92E5
:10035000AF92BF92CF92DF92EF92FF920F931F93D3
:10036000CF93DF93D62EC72E782E692E49015A01DE
:10037000280161E08D2D0E94760FCD2DDC2D8E01A0
:100380000F5F1F4FA8016D2D7C2D872D962DB8DF97
:1003900020E030E0A901C201B7010E94EB0D181660
:1003A00064F4C201B7010E94BA0C2B01C501B4016B
:1003B0000E94BA0CA201CE0123D0C801DF91CF91D7
:1003C0001F910F91FF90EF90DF90CF90BF90AF9073
:1003D0009F908F907F906F905F904F903F902F9065
:1003E0000895882341F08150682F70E090E080E00C
:1003F00050E040E085CF0895862FB9010C94F20EAD
:100400009C01FC01E859FF4FE491E33061F140F4B5
:10041000E13011F1E23021F160E0822F0C94B20F53
:10042000E730C1F1E83009F441C0E430A9F7809128
:1004300080008C7F82608093800090918100907E0C
:100440009061692B609381005093870040938600F0
:100450008091800080621BC084B5806884BDDCCF41
:1004600084B58062FBCF809180008C7F8260809316
:10047000800090918100907E9061692B6093810053
:10048000509387004093860080918000806880931D
:100490008000C2CF8091B00080688093B0008091CE
:1004A000B100887F682B6093B100B6CF8091B00017
:1004B0008062F3CFFC0191E080917F01811190E097
:1004C00091830895CF92DF92EF92FF926B017C01AE
:1004D0009F7720E030E040E05BE40E94B10C87FFB2
:1004E0002BC020E030E040E05FE3C701B6010E948E
:1004F000EB0D87FD0EC020E030E040E05FE3C70178
:10050000B6010E943A0CFF90EF90DF90CF900C94D0
:10051000230D20E030E040E05FEBC701B6010E9410
:10052000EB0D181684F420E030E0A901C701B601F4
:100530000E94EF0D6B017C01C701B601FF90EF90A7
:10054000DF90CF90089520E030E040E05FE3C70106
:10055000B6010E94390CFF90EF90DF90CF900C9481
:100560009E0CCF92DF92EF92FF926B017C019F77FE
:1005700020E030E040E859E50E94B10C87FF2BC035
:1005800020E030E040E05FE3C701B6010E94EB0DE0
:1005900087FD0EC020E030E040E05FE3C701B60118
:1005A0000E943A0CFF90EF90DF90CF900C94230DB7
:1005B00020E030E040E05FEBC701B6010E94EB0DA8
:1005C000181684F420E030E0A901C701B6010E94AA
:1005D000EF0D6B017C01C701B601FF90EF90DF903A
:1005E000CF90089520E030E040E05FE3C701B6011E
:1005F0000E94390CFF90EF90DF90CF900C949E0CEE
:1006000080917F018F5F8A3018F480937F01089575
:1006100010927F0108952F923F924F925F926F92B6
:100620007F92BF92CF92DF92EF92FF920F931F9330
:10063000CF93DF9300D0CDB7DEB7C0901401D09038
:100640001501E0901601F0901701A7019601609145
:10065000C5027091C6028091C7029091C8020E94A3
:10066000B10C882341F0C092C502D092C602E0923C
:10067000C702F092C80280E0E0DDB82EC0900C0105
:10068000D0900D01E0900E01F0900F01A7019601AE
:100690006091650270916602809167029091680294
:1006A0000E94B10C882341F0C0926502D09266028C
:1006B000E0926702F092680260E170E080E090E012
:1006C0003BDD909364028093630243E050E0BE01FF
:1006D0006F5F7F4F20DD69817A8190E080E00E942A
:1006E000E60C209138013091390140913A01509146
:1006F0003B010E94EF0D20913C0130913D01409162
:100700003E0150913F010E94EF0D6B017C01409032
:100710001C0150901D0160901E0170901F01A301EB
:1007200092016091AD027091AE028091AF02909102
:10073000B0020E94B10C882341F04092AD02509269
:10074000AE026092AF027092B00283E076DD182FA5
:10075000409020015090210160902201709023016F
:10076000A30192016091A1027091A2028091A30263
:100770009091A4020E94B10C882341F04092A10202
:100780005092A2026092A3027092A40284E055DD0E
:10079000082F409028015090290160902A01709004
:1007A0002B01A30192016091890270918A028091CC
:1007B0008B0290918C020E94B10C882341F04092F0
:1007C000890250928A0260928B0270928C0286E0BB
:1007D00034DD782E20902C0130902D0140902E0198
:1007E00050902F01A201910160917D0270917E02D3
:1007F00080917F02909180020E94B10C882341F089
:1008000020927D0230927E0240927F0250928002BE
:1008100087E013DD682E2090240130902501409060
:10082000260150902701A2019101609195027091DB
:10083000960280919702909198020E94B10C8823B1
:1008400041F0209295023092960240929702509287
:10085000980285E0F2DC90910303911107C081E0DA
:100860008093030386E0809304032EC090910403D9
:10087000933009F46DC090F49130F1F0923009F4A6
:100880005DC0662009F476C081E08093040384E0B3
:1008900090E090934E0280934D0216C0943009F47C
:1008A00061C0953071F781E090E090934E028093A3
:1008B0004D020023B9F208C084E090E090934E020C
:1008C00080934D02662071F240900801509009011A
:1008D00060900A0170900B01A30192016091710276
:1008E0007091720280917302909174020E94B10C17
:1008F000882341F04092710250927202609273021A
:10090000709274026FE070E080E090E015DC9093EC
:10091000700280936F0243E050E0BE016F5F7F4F33
:10092000FADB80910703811148C081E080930703BF
:1009300084E08093080310E000E0F4C083E090E0DE
:1009400090934E0280934D02772009F48BCFBCCF59
:1009500022E030E030934E0220934D02882309F4C8
:1009600081CFB2CF10924E0210924D02112309F4A2
:1009700079CFAACF772031F082E08093040383E01F
:1009800090E087CF882331F083E08093040382E0F6
:1009900090E07FCF002331F085E08093040381E075
:1009A00090E077CF112309F48FCF84E08093040384
:1009B00010924E0210924D0287CF69817A8190E0A9
:1009C00080E00E94E60C209140013091410140916D
:1009D0004201509143010E94EF0D2091440130915A
:1009E000450140914601509147010E94EF0D209131
:1009F00048013091490140914A0150914B013AD749
:100A00002B013C0100914D0210914E028091080390
:100A1000823009F403C190F4813011F101301105E5
:100A200009F00FC1609104017091050180910601E8
:100A3000909107019058A701960155C0833009F4A1
:100A40001CC1843059F7012B11F0B110FAC010927B
:100A5000490210924A0210924B0210924C026BCF44
:100A60000430110531F01092090382E080930803ED
:100A700001C180910903813071F0823009F43EC0D8
:100A80002BEA3AEA4AEA5EE3C701B6010E94EB0D9F
:100A900087FFA8C047C02BEA3AEA4AEA5EE3C701EB
:100AA000B6015FD7181624F082E0809309033AC09C
:100AB00020E030E040EC5FE36091000170910101C3
:100AC00080910201909103010E94EF0D2B013C01E6
:100AD0002BEA3AEA4AEA5EE3C701B601CAD69B01AD
:100AE000AC01C301B2010E94EF0D60934902709303
:100AF0004A0280934B0290934C0214C020E030E0F5
:100B0000A901C301B2012DD718160CF462C083E00D
:100B1000809309031092490210924A0210924B02EC
:100B200010924C02409018015090190160901A01E7
:100B300070901B01A30192016091B9027091BA02F9
:100B40008091BB029091BC020CD7882341F0409267
:100B5000B9025092BA026092BB027092BC0282E06B
:100B60006CDBB82E40901001509011016090120182
:100B700070901301A30192016091590270915A0281
:100B800080915B0290915C02ECD6882341F0409208
:100B9000590250925A0260925B0270925C0261E1CB
:100BA00070E080E090E0C8DA90935802809357029A
:100BB00043E050E0BE016F5F7F4FADDA80910503E7
:100BC000811197C081E08093050383E08093060341
:100BD000E3C02BEA3AEA4AEA5EE3C701B601FBD773
:100BE000181614F481E061CF40900001509001018B
:100BF000609002017090030177FA709477F8709416
:100C000020E030E040E450E4C701B601E8D79B01A2
:100C1000AC0160E070E080E89FE360CF2BEA3AEA45
:100C20004AEA5EE3C701B601D6D718163CF4043091
:100C3000110521F481E08093080337CF03301105BB
:100C400030F483E08093080302E010E06BCFA7014B
:100C500096016091000170910101809102019091D3
:100C60000301BDD76093490270934A0280934B02FF
:100C700090934C0203E010E055CF0115110581F46B
:100C8000BB2071F020E030E040EA50E4C301B20143
:100C90009F7767D687FF04C084E08093080342CF24
:100CA000C80103970297A8F4BB2051F020E030E080
:100CB00040EA50ECC301B2018ED718160CF4D5CE21
:100CC0001092490210924A0210924B0210924C026A
:100CD000BBCF01301105A1F7BB2091F320E030E03C
:100CE00040EA50E4C301B2013CD687FFE9CF85E07A
:100CF000D4CF69817A8190E080E068D620914C0160
:100D000030914D0140914E0150914F0168D7209193
:100D100050013091510140915201509153015FD7E0
:100D20009B01AC01C701B601A4D520910603213077
:100D300079F0223009F44CC120E030E0A90111D64D
:100D4000811104C081E0BB2009F440CF82E03ECF96
:100D500020E030E0A90105D6811137CFB11035CFA1
:100D60008091490290914A02A0914B02B0914C02AD
:100D70008093450290934602A0934702B0934802A5
:100D80001093500200934F0210922D0210922E02E7
:100D900010922F02109230028091010381113CC108
:100DA00081E08093010386E0809302036091310229
:100DB00070913202809133029091340283DB6B0197
:100DC0007C0120E030E040E853E4CBD56FEF87FFB3
:100DD0000CC020E030E0A901C701B601FCD660E0FC
:100DE00087FD03C0C701B601C5D588E01FDA609151
:100DF000350270913602809137029091380262DBA1
:100E00006B017C0120E030E040E853E4AAD56FEFAD
:100E100087FF0CC020E030E0A901C701B601DBD696
:100E200060E087FD03C0C701B601A4D58DE0FED9FF
:100E30006091390270913A0280913B0290913C029C
:100E400041DB6B017C0120E030E040E853E489D5D0
:100E50006FEF87FF0CC020E030E0A901C701B601A9
:100E6000BAD660E087FD03C0C701B60183D58AE02A
:100E7000DDD960913D0270913E0280913F029091D8
:100E8000400220DB6B017C0120E030E040E853E4CD
:100E900068D56FEF87FF0CC020E030E0A901C701E3
:100EA000B60199D660E087FD03C0C701B60162D5DF
:100EB0008BE0BCD960914102709142028091430263
:100EC00090914402FFDA6B017C0120E030E040E8C1
:100ED00053E447D56FEF87FF0CC020E030E0A90155
:100EE000C701B60178D660E087FD03C0C701B6012F
:100EF00041D58CE09BD960912D0270912E0280919A
:100F00002F02909130022DDB6B017C0120E030E05C
:100F100040E853E426D56FEF87FF0CC020E030E0B7
:100F2000A901C701B60157D660E087FD03C0C7011C
:100F3000B60120D581E07AD969E070E080E090E0E8
:100F4000BBD98C01909300038093FF022091300164
:100F5000309131014091320150913301609145024D
:100F600070914602809147029091480283D420916B
:100F700034013091350140913601509137012FD61F
:100F80006B017C0120E030E04FE753E4EAD418160F
:100F90000CF4EFC020E030E0A901C701B6011BD678
:100FA00087FDEEC0B701A601C8014FD90F900F9081
:100FB000DF91CF911F910F91FF90EF90DF90CF9035
:100FC000BF907F906F905F904F903F902F900895CB
:100FD00020E030E0A901C5D4811103C0BB2009F491
:100FE000F4CD82E090E09093500280934F021092F3
:100FF000450210924602109247021092480280E089
:1010000090E0A0E8BFE380932D0290932E02A0937E
:101010002F02B0933002C0CE80914F0290915002C7
:1010200020910203233009F446C0E8F4213059F13D
:101030002230A9F18230910509F47BC008F053C039
:10104000019709F486C084E08093020380E090E079
:10105000A0E8BFE38093310290933202A093330261
:10106000B0933402A3CE243091F1253019F70197C3
:1010700009F49CCE1092350210923602109237027B
:101080001092380290CE049709F490CE10923D024F
:1010900010923E0210923F021092400284CE0397BB
:1010A00009F484CE1092390210923A0210923B0257
:1010B00010923C0278CE029709F478CE1092410249
:1010C0001092420210924302109244026CCE892B7D
:1010D00009F46CCE10923102109232021092330257
:1010E0001092340260CE8330910599F0049709F094
:1010F000AACF81E08093020380E090E0A0E8BFE304
:1011000080933D0290933E02A0933F02B093400231
:101110004DCE82E08093020380E090E0A0E8BFE340
:101120008093390290933A02A0933B02B0933C0221
:101130003DCE83E08093020380E090E0A0E8BFE32F
:101140008093410290934202A0934302B0934402E1
:101150002DCE85E08093020380E090E0A0E8BFE31D
:101160008093350290933602A0933702B0933802F1
:101170001DCEC12CD12C8FE7E82E83E4F82E12CFA0
:10118000C12CD12C76010ECF8F929F92AF92BF923D
:10119000DF92EF92FF920F931F93CF93DF93C1E5FE
:1011A000D2E01092BD0200E011E0F8018489958937
:1011B000A689B7898093C5029093C602A093C702FF
:1011C000B093C802812C912C540183948092BE026A
:1011D0009092BF02A092C002B092C10260E080E093
:1011E0001DD8DD24D394D092C2021C86F8018485D8
:1011F0009585A685B7858C8B9D8BAE8BBF8B8D8699
:101200009E86AF86B88A60E170E080E090E00E9440
:10121000E0009B8B8A8BD98A1092A502F801848DFD
:10122000958DA68DB78D8093AD029093AE02A0935D
:10123000AF02B093B0028092A6029092A702A09251
:10124000A802B092A90260E083E00E940E01D09251
:10125000AA0210929902F80180A191A1A2A1B3A1C2
:101260008093A1029093A202A093A302B093A40240
:1012700080929A0290929B02A0929C02B0929D0250
:1012800060E084E00E940E01D0929E0218AAF8014C
:1012900080A591A5A2A5B3A588AF99AFAAAFBBAF12
:1012A00089AA9AAAABAABCAA60E086E00E940E01B5
:1012B000DDAA1CA2F80184A595A5A6A5B7A58CA7B3
:1012C0009DA7AEA7BFA78DA29EA2AFA2B8A660E0C1
:1012D00087E00E940E01D9A61CAEF80184A195A159
:1012E000A6A1B7A18093950290939602A09397022E
:1012F000B093980280928E0290928F02A0929002F8
:10130000B092910260E085E00E940E01D0929202BC
:10131000188EF80180859185A285B38588A399A34D
:10132000AAA3BBA3898E9A8EAB8EBC8E6FE070E0B1
:1013300080E090E00E94E0009F8F8E8FDD8E109203
:10134000B102F801808D918DA28DB38D8093B90289
:101350009093BA02A093BB02B093BC028092B202F7
:101360009092B302A092B402B092B50260E082E023
:101370000E940E01D092B6021882F80180899189EC
:10138000A289B38988879987AA87BB8789829A822D
:10139000AB82BC8261E170E080E090E00E94E000FE
:1013A0009F838E83DD821092F1028092F2029092EE
:1013B000F302A092F402B092F50261E088E00E948C
:1013C0000E01D092F6021092E9028092EA02909207
:1013D000EB02A092EC02B092ED0261E08DE00E947F
:1013E0000E01D092EE021092E1028092E2029092FF
:1013F000E302A092E402B092E50261E08AE00E947A
:101400000E01D092E6021092D9028092DA029092F6
:10141000DB02A092DC02B092DD0261E08BE00E9470
:101420000E01D092DE021092D1028092D2029092EE
:10143000D302A092D402B092D50261E08CE00E9467
:101440000E01D092D6021092C9028092CA029092E6
:10145000CB02A092CC02B092CD0261E081E00E946A
:101460000E01D092CE021092F9028092FA0290926E
:10147000FB02A092FC02B092FD02E12CF12C87014C
:10148000A801970169E070E080E090E00E94A0016F
:10149000909300038093FF02D092FE02DF91CF91E0
:1014A0001F910F91FF90EF90DF90BF90AF909F90B2
:1014B0008F9008958091BD02811103C081E08093D7
:1014C000BD0280915D0281111FC081E080935D02A9
:1014D00080915E0290915F02A0916002B0916102E2
:1014E0000197A105B10581F480916202882361F022
:1014F00060E170E080E090E00E949C0090936402C4
:10150000809363020E9403018091A502811103C0B0
:1015100081E08093A50280919902811103C081E04E
:101520008093990280918102811103C081E08093B0
:10153000810280917502811103C081E08093750260
:1015400080918D02811103C081E080938D02809192
:10155000690281111FC081E08093690280916A0253
:1015600090916B02A0916C02B0916D020197A10560
:10157000B10581F480916E02882361F06FE070E024
:1015800080E090E00E949C009093700280936F0234
:101590000E9403018091B102811103C081E0809318
:1015A000B1028091510281111FC081E080935102EC
:1015B0008091520290915302A0915402B091550231
:1015C0000197A105B10581F480915602882361F04D
:1015D00061E170E080E090E00E949C0090935802EE
:1015E000809357020E9403018091F102811103C090
:1015F00081E08093F1028091E902811103C081E0D2
:101600008093E9028091E102811103C081E080931F
:10161000E1028091D902811103C081E08093D90257
:101620008091D102811103C081E08093D102809129
:10163000C902811103C081E08093C9028091F9023F
:1016400081112EC081E08093F9028091FA0290917D
:10165000FB02A091FC02B091FD020197A105B1052A
:10166000F9F48091FE028823D9F069E070E080E00F
:1016700090E00E945C01909300038093FF0240E0A1
:1016800050E0BA010E94250169E070E080E090E03E
:101690000E945C01909300038093FF020C94F1017F
:1016A000089526E030E040E855E260E070E090E028
:1016B00080E000C0892B19F480E991E072C508959B
:1016C0001F920F920FB60F9211242F933F934F93B7
:1016D0005F936F937F938F939F93AF93BF93EF939A
:1016E000FF9383E88093B200809180018F5F8093A5
:1016F0008001853019F4109280012FD0FF91EF9175
:10170000BF91AF919F918F917F916F915F914F9119
:101710003F912F910F900FBE0F901F90189583E867
:101720008093B200A0E7B0E08C918E7F8C93E0EBC9
:10173000F0E080818C7F8083E1EBF0E08081877F27
:10174000808380818660808380818E7F80838C917E
:1017500081608C93089581E00895CF93DF9300D04A
:10176000CDB7DEB78091830191E0980F909383010C
:10177000882369F021E030E03093860120938501D1
:10178000809383010F900F90DF91CF910895CE0148
:1017900001960E945A0278940E940003F894809166
:1017A00083018150809383018A81882389F080910D
:1017B000820191E0980F90938201882349F021E003
:1017C00030E0309386012093850180938201DACF47
:1017D000809182018823B1F2809184018111D2CF5E
:1017E00081E08093840178940E940B03F8948091A7
:1017F0008201815080938201809184018150809385
:101800008401C0CFCF93DF9310920B0310920A0391
:1018100093D247DFC0915501D091560119821882A9
:10182000B3DCF8947CDF2881398181E0232B09F037
:1018300080E080930A037894789480910A03811160
:1018400007C038DEF89490E080E0DF91CF910895F2
:101850002881398181E0232B09F480E080930B03F8
:1018600090910B0381E0911180E080930A0373DF74
:10187000E4CF5058BB27AA270ED05CC14DD130F021
:1018800052D120F031F49F3F11F41EF442C10EF406
:10189000E095E7FB0FC1E92F5ED180F3BA1762072D
:1018A00073078407950718F071F49EF58DC10EF447
:1018B000E0950B2EBA2FA02D0B01B90190010C0160
:1018C000CA01A0011124FF27591B99F0593F50F478
:1018D000503E68F11A16F040A22F232F342F4427D0
:1018E000585FF3CF469537952795A795F0405395C8
:1018F000C9F77EF41F16BA0B620B730B840BBAF098
:101900009150A1F0FF0FBB1F661F771F881FC2F702
:101910000EC0BA0F621F731F841F48F48795779516
:101920006795B795F7959E3F08F0B3CF9395880FCD
:1019300008F09927EE0F9795879508952ED180F09E
:101940009F3740F491110EF440C160E070E080E8F0
:101950009FE3089526F01B16611D711D811DB0C007
:10196000CAC084D008F481E0089504D06894B1110D
:101970002CC10895F8D088F09F5790F0B92F99277F
:10198000B751A0F0D1F0660F771F881F991F1AF08A
:10199000BA95C9F712C0B13081F016D1B1E00895FF
:1019A00013C1672F782F8827B85F39F0B93FCCF380
:1019B000869577956795B395D9F73EF49095809580
:1019C000709561957F4F8F4F9F4F0895E89409C0A0
:1019D00097FB3EF490958095709561957F4F8F4F62
:1019E0009F4F9923A9F0F92F96E9BB279395F69578
:1019F000879577956795B795F111F8CFFAF4BB0FF6
:101A000011F460FF1BC06F5F7F4F8F4F9F4F16C059
:101A1000882311F096E911C0772321F09EE8872FE3
:101A2000762F05C0662371F096E8862F70E060E09F
:101A30002AF09A95660F771F881FDAF7880F969518
:101A4000879597F90895A9D080F09F3740F49111B8
:101A50000EF0BBC060E070E080E89FEB089526F4D4
:101A60001B16611D711D811D2BC045C0990F0008FB
:101A7000550FAA0BE0E8FEEF16161706E807F90760
:101A8000C0F012161306E407F50798F0621B730BFB
:101A9000840B950B39F40A2661F0232B242B252B7C
:101AA00021F408950A2609F4A140A6958FEF811D1F
:101AB000811D089597F99F6780E870E060E00895C0
:101AC000882371F4772321F09850872B762F07C055
:101AD000662311F499270DC09051862B70E060E0C9
:101AE0002AF09A95660F771F881FDAF7880F969568
:101AF000879597F908959F3F31F0915020F487958D
:101B000077956795B795880F911D9695879597F965
:101B100008959FEF80EC089500240A941616170686
:101B200018060906089500240A94121613061406CE
:101B300005060895092E0394000C11F4882352F031
:101B4000BB0F40F4BF2B11F460FF04C06F5F7F4FE9
:101B50008F4F9F4F089557FD9058440F551F59F0D0
:101B60005F3F71F04795880F97FB991F61F09F3F8A
:101B700079F087950895121613061406551FF2CFB3
:101B80004695F1DF08C0161617061806991FF1CF03
:101B900086957105610508940895E5DFA0F0BEE71C
:101BA000B91788F4BB279F3860F41616B11D672F4C
:101BB000782F8827985FF7CF869577956795B11D21
:101BC00093959639C8F30895E894BB27662777273D
:101BD000CB0197F908954ADF08F48FEF08950BD0F1
:101BE000A9CF9ADF28F09FDF18F0952309F062CF84
:101BF00090CF1124EACFAFDFA0F3959FD1F3950FDB
:101C000050E0551F629FF001729FBB27F00DB11D80
:101C1000639FAA27F00DB11DAA1F649F6627B00D10
:101C2000A11D661F829F2227B00DA11D621F739FF9
:101C3000B00DA11D621F839FA00D611D221F749F07
:101C40003327A00D611D231F849F600D211D822F4E
:101C5000762F6A2F11249F5750408AF0E1F0882395
:101C60004AF0EE0FFF1FBB1F661F771F881F9150A2
:101C70005040A9F79E3F510570F01CCFA6CF5F3FA3
:101C8000ECF3983EDCF3869577956795B795F795D5
:101C9000E7959F5FC1F7FE2B880F911D969587955D
:101CA00097F908951F920F920FB60F9211242F9358
:101CB0003F938F939F93AF93BF93809188019091AF
:101CC0008901A0918A01B0918B013091870123E0B5
:101CD000230F2D3758F50196A11DB11D20938701C3
:101CE0008093880190938901A0938A01B0938B011E
:101CF00080918C0190918D01A0918E01B0918F0106
:101D00000196A11DB11D80938C0190938D01A0932C
:101D10008E01B0938F01BF91AF919F918F913F91B1
:101D20002F910F900FBE0F901F90189526E8230F4C
:101D30000296A11DB11DD2CF789484B5826084BD76
:101D400084B5816084BD85B5826085BD85B58160BF
:101D500085BDEEE6F0E0808181608083E1E8F0E01F
:101D60001082808182608083808181608083E0E84E
:101D7000F0E0808181608083E1EBF0E0808184602D
:101D80008083E0EBF0E0808181608083EAE7F0E02F
:101D90008081846080838081826080838081816093
:101DA00080838081806880831092C10008958E3086
:101DB00008F08E502091540190E4299F9001112445
:101DC0008770822B80937C0080917A00806480935E
:101DD0007A0080917A0086FDFCCF80917800909106
:101DE000790008951F93CF93DF93182FEB0161E0E3
:101DF0007DD0209731F460E0812FDF91CF911F914A
:101E0000B1C0CF3FD10511F461E0F6CFE12FF0E092
:101E1000E859FF4FE491E33031F140F4E130B1F0A3
:101E2000E230E1F0C038D1057CF7E5CFE73029F1A9
:101E3000E83059F1E430B1F78091800080628093FE
:101E40008000D0938B00C0938A0004C084B5806862
:101E500084BDC7BDDF91CF911F91089584B5806285
:101E600084BDC8BDF7CF80918000806880938000DA
:101E7000D0938900C0938800EDCF8091B000806836
:101E80008093B000C093B300E5CF8091B000806232
:101E90008093B000C093B400DDCF833081F028F48C
:101EA000813099F08230A9F008958730A9F0883008
:101EB000C9F08430B1F4809180008F7D03C080919F
:101EC00080008F7780938000089584B58F7784BDDC
:101ED000089584B58F7DFBCF8091B0008F7780937C
:101EE000B00008958091B0008F7DF9CFCF93DF933C
:101EF00090E0FC01E458FF4F249180579F4FFC0174
:101F000084918823C9F090E0880F991FFC01E85460
:101F1000FF4FA591B491FC01E255FF4FC591D491BB
:101F200061110DC09FB7F8948C91209582238C93FA
:101F30008881282328839FBFDF91CF910895623045
:101F400051F49FB7F8943C91822F809583238C9312
:101F5000E8812E2BEFCF8FB7F894EC912E2B2C939A
:101F60008FBFEACF1F93CF93DF93282F30E0F90183
:101F7000E859FF4F8491F901E458FF4FD491F901DA
:101F8000E057FF4FC491CC23A1F0162F811185DFBC
:101F9000EC2FF0E0EE0FFF1FE255FF4FA591B4913B
:101FA0008FB7F894EC91111108C0D095DE23DC9323
:101FB0008FBFDF91CF911F910895DE2BF8CFCF9384
:101FC000DF93282F30E0F901E859FF4F8491F901A0
:101FD000E458FF4FD491F901E057FF4FC491CC234F
:101FE00099F081115ADFEC2FF0E0EE0FFF1FEC5556
:101FF000FF4FA591B491EC91ED2381E090E009F4BD
:1020000080E0DF91CF91089580E090E0FACFFC016D
:10201000918D228D892F90E0805C9F4F821B9109CA
:102020008F7399270895FC01918D828D981731F057
:10203000828DE80FF11D858D90E008958FEF9FEF61
:102040000895FC01918D828D981761F0A28DAE0FDD
:10205000BF2FB11D5D968C91928D9F5F9F73928F64
:1020600090E008958FEF9FEF0895FC01538D448D0C
:10207000252F30E0842F90E0821B930B541710F033
:10208000CF96089501970895FC01A48DA80FB92F4C
:10209000B11DA35ABF4F2C91848D90E001968F7390
:1020A0009927848FA689B7892C93A089B1898C91AF
:1020B000837080648C93938D848D981306C00288FE
:1020C000F389E02D80818F7D80830895CF93DF9306
:1020D000EC01888D8823B1F0AA89BB89E889F98948
:1020E0008C9185FD03C0808186FD0CC00FB607FC76
:1020F000F7CF8C9185FFF2CF808185FFEDCFCE01A8
:10210000C3DFEACFDF91CF910895EF92FF920F9353
:102110001F93CF93DF93EC0181E0888F9B8D8C8D93
:1021200098131AC0E889F989808185FF15C09FB787
:10213000F894EE89FF896083E889F989808183704A
:10214000806480839FBF81E090E0DF91CF911F91F9
:102150000F91FF90EF900895F62E0B8D10E00F5F1A
:102160001F4F0F731127E02E8C8D8E110BC00FB6F1
:1021700007FCFACFE889F989808185FFF5CFCE0188
:1021800083DFF2CFEB8DEC0FFD2FF11DE35AFF4FF4
:10219000F0829FB7F8940B8FEA89FB898081806277
:1021A000D0CFCF92DF92EF92FF921F93CF93DF9326
:1021B000EC016A017B01122FE889F98982E08083B2
:1021C000C11481EED806E104F10499F060E079E0F1
:1021D0008DE390E0A7019601F5D021503109410926
:1021E00051095695479537952795211580E1380770
:1021F00090F0E889F989108260E874E88EE190E057
:10220000A7019601DFD021503109410951095695A6
:10221000479537952795EC85FD853083EE85FF85BD
:102220002083188EEC89FD891083EA89FB898081DF
:1022300080618083EA89FB89808188608083EA8964
:10224000FB89808180688083EA89FB8980818F7D1A
:102250008083DF91CF911F91FF90EF90DF90CF901F
:1022600008951F920F920FB60F9211242F938F9300
:102270009F93EF93FF93E091A001F091A1018081E2
:10228000E091A601F091A70182FD1BC09081809191
:10229000A9018F5F8F732091AA01821741F0E0910D
:1022A000A901F0E0E057FE4F958F8093A901FF91BF
:1022B000EF919F918F912F910F900FBE0F901F90D4
:1022C00018958081F4CF1F920F920FB60F921124B0
:1022D0002F933F934F935F936F937F938F939F932E
:1022E000AF93BF93EF93FF9380E991E0CDDEFF9131
:1022F000EF91BF91AF919F918F917F916F915F917E
:102300004F913F912F910F900FBE0F901F901895F6
:10231000E0E9F1E01382128288EE93E0A0E0B0E001
:1023200084839583A683B7838BE591E09183808333
:1023300085EC90E09587848784EC90E0978786878A
:1023400080EC90E0918B808B81EC90E0938B828B82
:1023500082EC90E0958B848B86EC90E0978B868B5B
:10236000118E128E138E148E0895AF92BF92CF925B
:10237000DF92EF92FF920F931F93CF93DF936C0145
:102380007B018B01040F151FEB015E01AE18BF0826
:10239000C017D10759F06991D601ED91FC910190D8
:1023A000F081E02DC6010995892B79F7C501DF91F0
:1023B000CF911F910F91FF90EF90DF90CF90BF9042
:1023C000AF900895A1E21A2EAA1BBB1BFD010DC000
:1023D000AA1FBB1FEE1FFF1FA217B307E407F507D5
:1023E00020F0A21BB30BE40BF50B661F771F881FB1
:1023F000991F1A9469F760957095809590959B0147
:10240000AC01BD01CF010895EE0FFF1F0590F491BF
:08241000E02D0994F894FFCFC0
:102418000000A04200002042000080BF000080BFF2
:10242800000080BFCDCCCC3DCDCCCC3DCDCCCC3D7F
:10243800CDCCCC3DCDCCCC3DCDCCCC3DCDCCCC3D0C
:102448000000A0420000CC3F0A28A03BCDCC4C3E67
:102458000A28A03B00005C42000034C20A28A03BC6
:10246800CDCC4C3E017C01000000008510B5113533
:0A2478001066100710211013100069
:00000001FF
